:020000040000FA
:100000000204CB757403E568B40C00503D900013F6
:1000100025E073012B012F014A012F014A01330111
:1000200037014A013B013F0143014751CF801B513A
:100030003F8017719C801331F0800F917D800B51B0
:1000400076800791A68003E4F574E4FD7F0E918825
:10005000AF742202010EE4FD7F0E91887F11914D55
:100060008F1DE51D30E204E4FD2106E51D30E409A5
:100070007D807F119188E4F525E525704DE51D30E3
:10008000E04851A9E567547F6421701CE56824F7B6
:10009000600C2408700D856E24752501800E752571
:1000A000028009752503800411038F25E52564036B
:1000B00070047D20800AE52570047D4880027D4023
:1000C0007F1191887F11914D8F1DE5256401701F6F
:1000D000E51D54137019E567547F642170067F2075
:1000E00071F2800271167D0A7F119188E4F525E591
:1000F0002564027018E51D30E0137F16914DAD07A1
:100100007F20715B7D487F119188E4F52522C0E056
:10011000C0F0C083C082C0D075D000C000C001C094
:1001200002C003C2EDAB08AA09A90A75F002E50BEB
:10013000A4F58285F083E5BE85BDF012058A050B26
:10014000D3E50B9414748094804003750B007428DD
:10015000250BF582E43401F583E0F5BB050DE50DD3
:100160007002050CD394C8E50C94004008750C008F
:10017000750D00D2B0D003D002D001D000D0D0D0C5
:1001800082D083D0F0D0E03212037CE4F570F571B8
:100190001204C612040C1204251204BF12045FC21A
:1001A000B01203BA8F1F751E40E51F24B8603324B8
:1001B000087036E4F51AAF1AEF3395E0FEC3EF94FA
:1001C00014EE6480948050211203BAE51AFD339531
:1001D000E0FC74282DF58274013CF583EFF0051ADC
:1001E00080D4780076A575EF12AF1E12043B80AC68
:1001F000E4FF757401E56924FE601624E1601C14B7
:1002000060272421702D7522057523B79005B780CE
:10021000137522057523C97F22801B75220575235E
:10022000DB9005DBE493FF800D7522057523EB7FE2
:100230001B8003757403EFC3956E50028F6E22E529
:100240006F64027030E5676402702AE56C64814572
:100250006B7022E56A4569701CF5747D017F0E9113
:1002600088E56864017006C2007D408004D2007D8C
:10027000107F11918822E56F602EC3E56A9402E534
:100280006994005023E4F574E56A6017756F02C243
:10029000007D017F0E91887D407F1191887D207FB8
:1002A000128188756F01D200227F60914D8F679116
:1002B000B78F6891B78F6A91B78F6991B78F6C913B
:1002C000B78F6B91B78F6E91B78F6DE4FF81AFE5FC
:1002D0006F64027015E5676482700FE56C64814598
:1002E0006B70073000028192819CE56C456B700257
:1002F000919C2275A7207D087F01918875B3E07DD0
:10030000017F0791887D0C7F0B91887D8F7F0F91F6
:1003100088E4F5A781707F2091AFE4FFEFC3956E6D
:100320005016E5232FF582E43522F583E493F5AFEB
:10033000E5AE20E7FB0F80E4227F06914D8F1B7F07
:1003400002914D8F1CE51B30E2029170E51B30E3FA
:10035000020566E51C30E002115622EF44C0FF9111
:10036000AFED601491B774002521F582E43400F5F7
:1003700083EFF005211D80E9E4FF81AF7597DE75FD
:1003800097AD43FF8075EF0275A71075C130E4F596
:10039000A975A90375A720F5B50202F3C3E56A9410
:1003A00080E56994005012E4F574AD6AFF9188E528
:1003B0006A7003F56F22756F0122E572B52105128F
:1003C000033980F674002572F582E43400F583E089
:1003D000FF05721573227D017F0E91882000127F28
:1003E00011914DEF20E00A7F2171F27D017F119183
:1003F000882291AFE4FFE524601174262FF8E6F51A
:10040000AFE5AE20E7FB15240F80EB22E4F5B275D3
:10041000BB0F75BC1B75B38475B99E75DF4F53E870
:10042000F843E8C222E5C8540453C8FB75CC0F75E5
:10043000CBFF75CA6A43C80442C8228F2675244080
:10044000E52460081203D612033980F422E5AE20B9
:10045000E7FBEF4480F5AEE5AE20E7FBAFAF22E46B
:10046000F521F5721203BABF24F51203BA8F732275
:10047000E4F56FF525D2007D017F018188E56F6489
:100480000270028192919C22E5AE20E7FB8FAE8D37
:10049000AF227574017522067523062275740175E5
:1004A000220675230822E56F64027002919C22E502
:1004B000AE20E7FB8FAE22E5AE20E7FBAFAF2275A3
:1004C000E60875A8802275D18C22221204CA787F92
:1004D000E4F6D8FD758174020515020188E493A342
:1004E000F8E493A34003F68001F208DFF48029E4E6
:1004F00093A3F85407240CC8C333C4540F4420C832
:10050000834004F456800146F6DFE4800B010204C8
:10051000081020408090055AE47E019360BCA3FF40
:10052000543F30E509541FFEE493A360010ECF54FD
:10053000C025E060A840B8E493A3FAE493A3F8E4EC
:1005400093A3C8C582C8CAC583CAF0A3C8C582C858
:10055000CAC583CADFE9DEE780BE54012814151638
:100560001708090A0B0C0D0E0F0001020304050603
:1005700007011200011700011100010E000308001D
:100580000027010B00020C000000F8BB0111E582FE
:1005900029F582E5833AF583E8F0E5F0A3F02250EF
:1005A00009E92582C8F608A6F022BBFE09E92582E2
:1005B000C8F2E5F008F2221201000200000040C477
:1005C00010C9EA0001000000010902220001010037
:1005D000803209040000010300000009211101001C
:1005E00001221B00070581034000010600FF0901ED
:1005F000A101150026FF00750895400901810295AB
:0A0600004009019102C00100000052
:00000001FF
